:100000000C9434000C943E000C943E000C943E0082
:100010000C943E000C943E000C943E000C943E0068
:100020000C943E000C943E000C943E000C943E0058
:100030000C943E000C943E000C943E000C943E0048
:100040000C943E000C943E000C943E000C943E0038
:100050000C943E000C943E000C943E000C943E0028
:100060000C943E000C943E0011241FBECFEFD8E04C
:10007000DEBFCDBF0E945D000C9422010C940000F5
:1000800028989BB121E030E002C0220F331F8A95EF
:10009000E2F7922B9BB908959BB121E030E002C0BA
:1000A000220F331F8A95E2F7209529232BB9089553
:1000B000289A5A985C985B9808958F929F92AF9275
:1000C000BF92CF92DF92EF92FF920F931F93CF9345
:1000D000DF93529A539A549A209A25982D9A0E9407
:1000E000580078E8A72E73E1B72EC0E0D0E068EBA7
:1000F000C62E6BE0D62E5CEDE52E55E0F52E08E51C
:1001000012E040EA842E4FE0942E1D9B04C032E39F
:10011000A32EB12C0BC00894A108B108A114B104FE
:1001200029F4219628E8A22E23E1B22EC430D1056D
:1001300059F1C530D10558F4C230D105E1F0C330D2
:10014000D105E8F4C130D10509F078C00FC0C63040
:10015000D105F1F1C630D105E0F0C730D10509F481
:1001600050C0C830D10509F069C064C028985A9AB7
:1001700028985C9A21C028985A9A5B9803C05A988C
:1001800028985B9A5C985AC05A985B9828985C9A11
:1001900055C00894C108D10888EEC81683E0D80677
:1001A00049F080EDC81687E0D806C1F1C114D1042A
:1001B00031F044C00E94580028985B9A3FC00E94CA
:1001C000580028985C9A98EBC92E9BE0D92E36C02F
:1001D0000894E108F10884EFE81681E0F80651F38D
:1001E00088EEE81683E0F806C9F0E114F10431F571
:1001F0000E94580028985C9A8CEDE82E85E0F82E35
:100200001DC001501040083C1105A1F281E00039E9
:10021000180721F00115110531F010C00E94580097
:1002200028985A9A0BC00E94580028985C9A08E5B2
:1002300012E004C00E945800C0E0D0E0C401019761
:08024000F1F763CFF894FFCF42
:00000001FF
